:100EC2008731632F8B0121009101920193019401DB
:100ED2002100FF3097002100F0309B0022008C019E
:100EE2008D018E012100FF308C008D018E012300C7
:100EF200FF308C000C118D018E0121009712971189
:100F020017109710200097010B118B168B17873142
:100F1200B12FF0000308F1000A08F20087318B1AA2
:100F22000B1DAA2F0B117708031DF7032200FF30B8
:100F32008E007F308D1FBF300D1FDF308D1EEF30D2
:100F42008D0073088D1E74080D1F75088D1F76089D
:100F52008E0672088A0071088300F00E700E090076
:100F620020000430A100A201A3017708031DB62FBF
:100F7200F430F7002008A007201A2014F3132018D9
:100F8200F317F413A018F417F5132019F517F61335
:100F9200A019F617A10BB62F0430A1002208E727EB
:100FA200F600220EE727F5002308E727F400230EB8
:100FB200E727F3002018F317A018F4172019F517E4
:100FC200A019F617A20FB62FA30AB62F0F39073AA8
:100FD2008A00073A8A06F03E03188A0A82003F34E2
:100FE20006345B344F3466346D347D3407347F34D9
:0E0FF2006F3477347C3439345E3479347134A2
:020000040001F9
:04000E00E419FF1ED4
:00000001FF
